{
  "_format": "hh-sol-artifact-1",
  "contractName": "Review",
  "sourceName": "contracts/Review.sol",
  "abi": [
    {
      "inputs": [],
      "stateMutability": "nonpayable",
      "type": "constructor"
    },
    {
      "anonymous": false,
      "inputs": [
        {
          "indexed": false,
          "internalType": "string",
          "name": "name",
          "type": "string"
        },
        {
          "indexed": false,
          "internalType": "address",
          "name": "sender",
          "type": "address"
        },
        {
          "indexed": false,
          "internalType": "string",
          "name": "message",
          "type": "string"
        },
        {
          "indexed": false,
          "internalType": "uint256",
          "name": "timestamp",
          "type": "uint256"
        },
        {
          "indexed": false,
          "internalType": "uint8",
          "name": "rating",
          "type": "uint8"
        }
      ],
      "name": "NewReview",
      "type": "event"
    },
    {
      "inputs": [
        {
          "internalType": "string",
          "name": "",
          "type": "string"
        },
        {
          "internalType": "uint256",
          "name": "",
          "type": "uint256"
        }
      ],
      "name": "Reviews",
      "outputs": [
        {
          "internalType": "address",
          "name": "sender",
          "type": "address"
        },
        {
          "internalType": "string",
          "name": "message",
          "type": "string"
        },
        {
          "internalType": "uint256",
          "name": "timestamp",
          "type": "uint256"
        },
        {
          "internalType": "uint8",
          "name": "rating",
          "type": "uint8"
        }
      ],
      "stateMutability": "view",
      "type": "function"
    },
    {
      "inputs": [
        {
          "internalType": "string",
          "name": "name",
          "type": "string"
        },
        {
          "internalType": "string",
          "name": "message",
          "type": "string"
        },
        {
          "internalType": "uint8",
          "name": "rating",
          "type": "uint8"
        }
      ],
      "name": "createReview",
      "outputs": [],
      "stateMutability": "nonpayable",
      "type": "function"
    },
    {
      "inputs": [
        {
          "internalType": "string",
          "name": "name",
          "type": "string"
        }
      ],
      "name": "getReviews",
      "outputs": [
        {
          "components": [
            {
              "internalType": "address",
              "name": "sender",
              "type": "address"
            },
            {
              "internalType": "string",
              "name": "message",
              "type": "string"
            },
            {
              "internalType": "uint256",
              "name": "timestamp",
              "type": "uint256"
            },
            {
              "internalType": "uint8",
              "name": "rating",
              "type": "uint8"
            }
          ],
          "internalType": "struct Review.ReviewStruct[]",
          "name": "",
          "type": "tuple[]"
        }
      ],
      "stateMutability": "view",
      "type": "function"
    }
  ],
  "bytecode": "0x608060405234801561001057600080fd5b50610d26806100206000396000f3fe608060405234801561001057600080fd5b50600436106100415760003560e01c80632978465d146100465780635eeef2f714610076578063721980f314610092575b600080fd5b610060600480360381019061005b919061064f565b6100c5565b60405161006d91906109d2565b60405180910390f35b610090600480360381019061008b9190610690565b610251565b005b6100ac60048036038101906100a7919061070f565b610402565b6040516100bc9493929190610986565b60405180910390f35b60606000826040516100d7919061096f565b9081526020016040518091039020805480602002602001604051908101604052809291908181526020016000905b8282101561024657838290600052602060002090600402016040518060800160405290816000820160009054906101000a900473ffffffffffffffffffffffffffffffffffffffff1673ffffffffffffffffffffffffffffffffffffffff1673ffffffffffffffffffffffffffffffffffffffff16815260200160018201805461018e90610bc7565b80601f01602080910402602001604051908101604052809291908181526020018280546101ba90610bc7565b80156102075780601f106101dc57610100808354040283529160200191610207565b820191906000526020600020905b8154815290600101906020018083116101ea57829003601f168201915b50505050508152602001600282015481526020016003820160009054906101000a900460ff1660ff1660ff168152505081526020019060010190610105565b505050509050919050565b60008160ff16118015610267575060068160ff16105b6102a6576040517f08c379a000000000000000000000000000000000000000000000000000000000815260040161029d90610a55565b60405180910390fd5b600060405180608001604052803373ffffffffffffffffffffffffffffffffffffffff1681526020018481526020014281526020018360ff1681525090506000846040516102f4919061096f565b908152602001604051809103902081908060018154018082558091505060019003906000526020600020906004020160009091909190915060008201518160000160006101000a81548173ffffffffffffffffffffffffffffffffffffffff021916908373ffffffffffffffffffffffffffffffffffffffff160217905550602082015181600101908051906020019061038f92919061051a565b506040820151816002015560608201518160030160006101000a81548160ff021916908360ff16021790555050507f64450b8352b36aa6191a9902e29eb4dc1fefd03d6b41b115c488ca2a638f320a84338542866040516103f49594939291906109f4565b60405180910390a150505050565b600082805160208101820180518482526020830160208501208183528095505050505050818154811061043457600080fd5b9060005260206000209060040201600091509150508060000160009054906101000a900473ffffffffffffffffffffffffffffffffffffffff169080600101805461047e90610bc7565b80601f01602080910402602001604051908101604052809291908181526020018280546104aa90610bc7565b80156104f75780601f106104cc576101008083540402835291602001916104f7565b820191906000526020600020905b8154815290600101906020018083116104da57829003601f168201915b5050505050908060020154908060030160009054906101000a900460ff16905084565b82805461052690610bc7565b90600052602060002090601f016020900481019282610548576000855561058f565b82601f1061056157805160ff191683800117855561058f565b8280016001018555821561058f579182015b8281111561058e578251825591602001919060010190610573565b5b50905061059c91906105a0565b5090565b5b808211156105b95760008160009055506001016105a1565b5090565b60006105d06105cb84610a9a565b610a75565b9050828152602081018484840111156105e857600080fd5b6105f3848285610b85565b509392505050565b600082601f83011261060c57600080fd5b813561061c8482602086016105bd565b91505092915050565b60008135905061063481610cc2565b92915050565b60008135905061064981610cd9565b92915050565b60006020828403121561066157600080fd5b600082013567ffffffffffffffff81111561067b57600080fd5b610687848285016105fb565b91505092915050565b6000806000606084860312156106a557600080fd5b600084013567ffffffffffffffff8111156106bf57600080fd5b6106cb868287016105fb565b935050602084013567ffffffffffffffff8111156106e857600080fd5b6106f4868287016105fb565b92505060406107058682870161063a565b9150509250925092565b6000806040838503121561072257600080fd5b600083013567ffffffffffffffff81111561073c57600080fd5b610748858286016105fb565b925050602061075985828601610625565b9150509250929050565b600061076f83836108d0565b905092915050565b61078081610b3c565b82525050565b61078f81610b3c565b82525050565b60006107a082610adb565b6107aa8185610afe565b9350836020820285016107bc85610acb565b8060005b858110156107f857848403895281516107d98582610763565b94506107e483610af1565b925060208a019950506001810190506107c0565b50829750879550505050505092915050565b600061081582610ae6565b61081f8185610b0f565b935061082f818560208601610b94565b61083881610c88565b840191505092915050565b600061084e82610ae6565b6108588185610b20565b9350610868818560208601610b94565b61087181610c88565b840191505092915050565b600061088782610ae6565b6108918185610b31565b93506108a1818560208601610b94565b80840191505092915050565b60006108ba601e83610b20565b91506108c582610c99565b602082019050919050565b60006080830160008301516108e86000860182610777565b5060208301518482036020860152610900828261080a565b91505060408301516109156040860182610933565b5060608301516109286060860182610951565b508091505092915050565b61093c81610b6e565b82525050565b61094b81610b6e565b82525050565b61095a81610b78565b82525050565b61096981610b78565b82525050565b600061097b828461087c565b915081905092915050565b600060808201905061099b6000830187610786565b81810360208301526109ad8186610843565b90506109bc6040830185610942565b6109c96060830184610960565b95945050505050565b600060208201905081810360008301526109ec8184610795565b905092915050565b600060a0820190508181036000830152610a0e8188610843565b9050610a1d6020830187610786565b8181036040830152610a2f8186610843565b9050610a3e6060830185610942565b610a4b6080830184610960565b9695505050505050565b60006020820190508181036000830152610a6e816108ad565b9050919050565b6000610a7f610a90565b9050610a8b8282610bf9565b919050565b6000604051905090565b600067ffffffffffffffff821115610ab557610ab4610c59565b5b610abe82610c88565b9050602081019050919050565b6000819050602082019050919050565b600081519050919050565b600081519050919050565b6000602082019050919050565b600082825260208201905092915050565b600082825260208201905092915050565b600082825260208201905092915050565b600081905092915050565b6000610b4782610b4e565b9050919050565b600073ffffffffffffffffffffffffffffffffffffffff82169050919050565b6000819050919050565b600060ff82169050919050565b82818337600083830152505050565b60005b83811015610bb2578082015181840152602081019050610b97565b83811115610bc1576000848401525b50505050565b60006002820490506001821680610bdf57607f821691505b60208210811415610bf357610bf2610c2a565b5b50919050565b610c0282610c88565b810181811067ffffffffffffffff82111715610c2157610c20610c59565b5b80604052505050565b7f4e487b7100000000000000000000000000000000000000000000000000000000600052602260045260246000fd5b7f4e487b7100000000000000000000000000000000000000000000000000000000600052604160045260246000fd5b6000601f19601f8301169050919050565b7f526174696e67206d757374206265206265747765656e203120616e6420350000600082015250565b610ccb81610b6e565b8114610cd657600080fd5b50565b610ce281610b78565b8114610ced57600080fd5b5056fea26469706673582212203ac155812a9530edd48efbddfb6e8b2871a4ccef17480f0eec2fe64eab33aa8364736f6c63430008040033",
  "linkReferences": {},
  "deployedLinkReferences": {}
}